{"contracts/ChainVotes.sol":{"ChainVotes":{"abi":[{"inputs":[{"internalType":"uint256","name":"id","type":"uint256"},{"internalType":"address","name":"voter","type":"address"}],"name":"AlreadyVoted","type":"error"},{"inputs":[],"name":"DescriptionTooShort","type":"error"},{"inputs":[],"name":"InvalidDuration","type":"error"},{"inputs":[{"internalType":"uint256","name":"id","type":"uint256"}],"name":"ProposalNotActive","type":"error"},{"inputs":[{"internalType":"uint256","name":"id","type":"uint256"}],"name":"ProposalNotFound","type":"error"},{"inputs":[],"name":"TitleTooShort","type":"error"},{"anonymous":false,"inputs":[{"indexed":true,"internalType":"uint256","name":"id","type":"uint256"},{"indexed":true,"internalType":"address","name":"creator","type":"address"},{"indexed":false,"internalType":"string","name":"title","type":"string"},{"indexed":false,"internalType":"uint256","name":"startTime","type":"uint256"},{"indexed":false,"internalType":"uint256","name":"endTime","type":"uint256"},{"indexed":false,"internalType":"uint256","name":"quorum","type":"uint256"}],"name":"ProposalCreated","type":"event"},{"anonymous":false,"inputs":[{"indexed":true,"internalType":"uint256","name":"proposalId","type":"uint256"},{"indexed":true,"internalType":"address","name":"voter","type":"address"},{"indexed":false,"internalType":"enum ChainVotes.VoteChoice","name":"choice","type":"uint8"}],"name":"Voted","type":"event"},{"inputs":[{"internalType":"string","name":"_title","type":"string"},{"internalType":"string","name":"_description","type":"string"},{"internalType":"uint256","name":"_durationSec","type":"uint256"},{"internalType":"uint256","name":"_quorum","type":"uint256"}],"name":"createProposal","outputs":[{"internalType":"uint256","name":"","type":"uint256"}],"stateMutability":"nonpayable","type":"function"},{"inputs":[],"name":"getAllProposals","outputs":[{"internalType":"uint256[]","name":"ids","type":"uint256[]"},{"internalType":"string[]","name":"titles","type":"string[]"},{"internalType":"address[]","name":"creators","type":"address[]"},{"internalType":"uint256[]","name":"yesArr","type":"uint256[]"},{"internalType":"uint256[]","name":"noArr","type":"uint256[]"},{"internalType":"uint256[]","name":"abstainArr","type":"uint256[]"},{"internalType":"uint256[]","name":"endTimes","type":"uint256[]"},{"internalType":"uint8[]","name":"statuses","type":"uint8[]"}],"stateMutability":"view","type":"function"},{"inputs":[{"internalType":"uint256","name":"_id","type":"uint256"}],"name":"getProposal","outputs":[{"internalType":"uint256","name":"id","type":"uint256"},{"internalType":"string","name":"title","type":"string"},{"internalType":"string","name":"description","type":"string"},{"internalType":"address","name":"creator","type":"address"},{"internalType":"uint256","name":"startTime","type":"uint256"},{"internalType":"uint256","name":"endTime","type":"uint256"},{"internalType":"uint256","name":"quorum","type":"uint256"},{"internalType":"uint256","name":"yesVotes","type":"uint256"},{"internalType":"uint256","name":"noVotes","type":"uint256"},{"internalType":"uint256","name":"abstainVotes","type":"uint256"},{"internalType":"enum ChainVotes.ProposalStatus","name":"status","type":"uint8"}],"stateMutability":"view","type":"function"},{"inputs":[{"internalType":"address","name":"_voter","type":"address"},{"internalType":"uint256","name":"_proposalId","type":"uint256"}],"name":"getVote","outputs":[{"internalType":"enum ChainVotes.VoteChoice","name":"","type":"uint8"}],"stateMutability":"view","type":"function"},{"inputs":[],"name":"proposalCount","outputs":[{"internalType":"uint256","name":"","type":"uint256"}],"stateMutability":"view","type":"function"},{"inputs":[{"internalType":"uint256","name":"","type":"uint256"}],"name":"proposals","outputs":[{"internalType":"uint256","name":"id","type":"uint256"},{"internalType":"string","name":"title","type":"string"},{"internalType":"string","name":"description","type":"string"},{"internalType":"address","name":"creator","type":"address"},{"internalType":"uint256","name":"startTime","type":"uint256"},{"internalType":"uint256","name":"endTime","type":"uint256"},{"internalType":"uint256","name":"quorum","type":"uint256"},{"internalType":"uint256","name":"yesVotes","type":"uint256"},{"internalType":"uint256","name":"noVotes","type":"uint256"},{"internalType":"uint256","name":"abstainVotes","type":"uint256"},{"internalType":"bool","name":"exists","type":"bool"}],"stateMutability":"view","type":"function"},{"inputs":[{"internalType":"uint256","name":"_proposalId","type":"uint256"},{"internalType":"enum ChainVotes.VoteChoice","name":"_choice","type":"uint8"}],"name":"vote","outputs":[],"stateMutability":"nonpayable","type":"function"},{"inputs":[{"internalType":"address","name":"","type":"address"},{"internalType":"uint256","name":"","type":"uint256"}],"name":"votes","outputs":[{"internalType":"enum ChainVotes.VoteChoice","name":"","type":"uint8"}],"stateMutability":"view","type":"function"}],"evm":{"bytecode":{"linkReferences":{},"object":"608060405234801561001057600080fd5b506114db806100206000396000f3fe608060405234801561001057600080fd5b50600436106100885760003560e01c80639f2524ee1161005b5780639f2524ee14610116578063c7f758a814610144578063cceb68f51461016e578063da35c6641461018a57600080fd5b8063013cf08b1461008d5780636b0dd90f146100c05780636b5e1766146100e0578063943e821614610101575b600080fd5b6100a061009b366004610e2c565b610193565b6040516100b79b9a99989796959493929190610e8b565b60405180910390f35b6100d36100ce366004610f08565b610305565b6040516100b79190610f56565b6100f36100ee366004610fb9565b610333565b6040519081526020016100b7565b61011461010f366004611037565b61058e565b005b6100d3610124366004610f08565b600260209081526000928352604080842090915290825290205460ff1681565b610157610152366004610e2c565b610785565b6040516100b79b9a9998979695949392919061106b565b610176610980565b6040516100b79897969594939291906111a1565b6100f360005481565b6001602081905260009182526040909120805491810180546101b490611292565b80601f01602080910402602001604051908101604052809291908181526020018280546101e090611292565b801561022d5780601f106102025761010080835404028352916020019161022d565b820191906000526020600020905b81548152906001019060200180831161021057829003601f168201915b50505050509080600201805461024290611292565b80601f016020809104026020016040519081016040528092919081815260200182805461026e90611292565b80156102bb5780601f10610290576101008083540402835291602001916102bb565b820191906000526020600020905b81548152906001019060200180831161029e57829003601f168201915b50505060038401546004850154600586015460068701546007880154600889015460098a0154600a909a015498996001600160a01b03909616989497509295509093909260ff168b565b6001600160a01b038216600090815260026020908152604080832084845290915290205460ff165b92915050565b6000600a861015610357576040516324ace35560e01b815260040160405180910390fd5b601484101561037957604051631b0bf73560e21b815260040160405180910390fd5b8260000361039a57604051637616640160e01b815260040160405180910390fd5b6000805490806103a9836112e2565b919050555060008054905060405180610160016040528082815260200189898080601f016020809104026020016040519081016040528093929190818152602001838380828437600092019190915250505090825250604080516020601f8a018190048102820181019092528881529181019190899089908190840183828082843760009201919091525050509082525033602082015242604082018190526060909101906104599087906112fb565b81526020808201869052600060408084018290526060840182905260808401829052600160a09094018490528582528383529020835181559083015190918201906104a49082611375565b50604082015160028201906104b99082611375565b5060608201516003820180546001600160a01b0319166001600160a01b039092169190911790556080820151600482015560a0820151600582015560c0820151600682015560e082015160078201556101008201516008820155610120820151600982015561014090910151600a909101805460ff191691151591909117905533817f6b04e3d11c426737470e9f5cdd847185e72cb1b770b7b6781c49838732a9011e8a8a426105698a826112fb565b8960405161057b959493929190611435565b60405180910390a3979650505050505050565b6000828152600160205260409020600a81015460ff166105c95760405163428d06a960e01b8152600481018490526024015b60405180910390fd5b80600401544210806105de5750806005015442115b156105ff576040516344980d8f60e01b8152600481018490526024016105c0565b33600090815260026020908152604080832086845290915281205460ff16600381111561062e5761062e610f40565b14610655576040516304f9da6360e01b8152600481018490523360248201526044016105c0565b600082600381111561066957610669610f40565b0361068a576040516344980d8f60e01b8152600481018490526024016105c0565b3360009081526002602090815260408083208684529091529020805483919060ff191660018360038111156106c1576106c1610f40565b021790555060018260038111156106da576106da610f40565b036106fb576007810180549060006106f1836112e2565b919050555061073e565b600282600381111561070f5761070f610f40565b03610726576008810180549060006106f1836112e2565b600981018054906000610738836112e2565b91905055505b336001600160a01b0316837f094f80829c509370abb2d421a078ba5926755d3de25d021dacf7bbd19853f7a2846040516107789190610f56565b60405180910390a3505050565b6000818152600160205260408120600a81015460609182918491829182918291829182918291829160ff166107d05760405163428d06a960e01b8152600481018e90526024016105c0565b600081600401544210156107e6575060006107fd565b816005015442116107f9575060016107fd565b5060025b816000015482600101836002018460030160009054906101000a90046001600160a01b0316856004015486600501548760060154886007015489600801548a600901548a89805461084d90611292565b80601f016020809104026020016040519081016040528092919081815260200182805461087990611292565b80156108c65780601f1061089b576101008083540402835291602001916108c6565b820191906000526020600020905b8154815290600101906020018083116108a957829003601f168201915b505050505099508880546108d990611292565b80601f016020809104026020016040519081016040528092919081815260200182805461090590611292565b80156109525780601f1061092757610100808354040283529160200191610952565b820191906000526020600020905b81548152906001019060200180831161093557829003601f168201915b505050505098509c509c509c509c509c509c509c509c509c509c509c50505091939597999b90929496989a50565b6060806060806060806060806000805490508067ffffffffffffffff8111156109ab576109ab61130e565b6040519080825280602002602001820160405280156109d4578160200160208202803683370190505b5098508067ffffffffffffffff8111156109f0576109f061130e565b604051908082528060200260200182016040528015610a2357816020015b6060815260200190600190039081610a0e5790505b5097508067ffffffffffffffff811115610a3f57610a3f61130e565b604051908082528060200260200182016040528015610a68578160200160208202803683370190505b5096508067ffffffffffffffff811115610a8457610a8461130e565b604051908082528060200260200182016040528015610aad578160200160208202803683370190505b5095508067ffffffffffffffff811115610ac957610ac961130e565b604051908082528060200260200182016040528015610af2578160200160208202803683370190505b5094508067ffffffffffffffff811115610b0e57610b0e61130e565b604051908082528060200260200182016040528015610b37578160200160208202803683370190505b5093508067ffffffffffffffff811115610b5357610b5361130e565b604051908082528060200260200182016040528015610b7c578160200160208202803683370190505b5092508067ffffffffffffffff811115610b9857610b9861130e565b604051908082528060200260200182016040528015610bc1578160200160208202803683370190505b50915060015b818111610e2057600081815260016020819052604082209190610bea908461147c565b905081600001548c8281518110610c0357610c0361148f565b602002602001018181525050816001018054610c1e90611292565b80601f0160208091040260200160405190810160405280929190818152602001828054610c4a90611292565b8015610c975780601f10610c6c57610100808354040283529160200191610c97565b820191906000526020600020905b815481529060010190602001808311610c7a57829003601f168201915b50505050508b8281518110610cae57610cae61148f565b602090810291909101015260038201548a516001600160a01b03909116908b9083908110610cde57610cde61148f565b60200260200101906001600160a01b031690816001600160a01b0316815250508160070154898281518110610d1557610d1561148f565b6020026020010181815250508160080154888281518110610d3857610d3861148f565b6020026020010181815250508160090154878281518110610d5b57610d5b61148f565b6020026020010181815250508160050154868281518110610d7e57610d7e61148f565b6020026020010181815250508160040154421015610dc3576000858281518110610daa57610daa61148f565b602002602001019060ff16908160ff1681525050610e0b565b81600501544211610de2576001858281518110610daa57610daa61148f565b6002858281518110610df657610df661148f565b602002602001019060ff16908160ff16815250505b50508080610e18906112e2565b915050610bc7565b50509091929394959697565b600060208284031215610e3e57600080fd5b5035919050565b6000815180845260005b81811015610e6b57602081850181015186830182015201610e4f565b506000602082860101526020601f19601f83011685010191505092915050565b60006101608d8352806020840152610ea58184018e610e45565b90508281036040840152610eb9818d610e45565b6001600160a01b039b909b1660608401525050608081019790975260a087019590955260c086019390935260e08501919091526101008401526101208301521515610140909101529392505050565b60008060408385031215610f1b57600080fd5b82356001600160a01b0381168114610f3257600080fd5b946020939093013593505050565b634e487b7160e01b600052602160045260246000fd5b6020810160048310610f6a57610f6a610f40565b91905290565b60008083601f840112610f8257600080fd5b50813567ffffffffffffffff811115610f9a57600080fd5b602083019150836020828501011115610fb257600080fd5b9250929050565b60008060008060008060808789031215610fd257600080fd5b863567ffffffffffffffff80821115610fea57600080fd5b610ff68a838b01610f70565b9098509650602089013591508082111561100f57600080fd5b5061101c89828a01610f70565b979a9699509760408101359660609091013595509350505050565b6000806040838503121561104a57600080fd5b8235915060208301356004811061106057600080fd5b809150509250929050565b60006101608d83528060208401526110858184018e610e45565b90508281036040840152611099818d610e45565b91505060018060a01b038a1660608301528860808301528760a08301528660c08301528560e08301528461010083015283610120830152600383106110e0576110e0610f40565b826101408301529c9b505050505050505050505050565b60008151808452602080850194506020840160005b838110156111285781518752958201959082019060010161110c565b509495945050505050565b60008151808452602080850194506020840160005b838110156111285781516001600160a01b031687529582019590820190600101611148565b60008151808452602080850194506020840160005b8381101561112857815160ff1687529582019590820190600101611182565b60006101008083526111b58184018c6110f7565b9050602083820381850152818b518084528284019150828160051b850101838e0160005b8381101561120757601f198784030185526111f5838351610e45565b948601949250908501906001016111d9565b5050868103604088015261121b818e611133565b945050505050828103606084015261123381896110f7565b9050828103608084015261124781886110f7565b905082810360a084015261125b81876110f7565b905082810360c084015261126f81866110f7565b905082810360e0840152611283818561116d565b9b9a5050505050505050505050565b600181811c908216806112a657607f821691505b6020821081036112c657634e487b7160e01b600052602260045260246000fd5b50919050565b634e487b7160e01b600052601160045260246000fd5b6000600182016112f4576112f46112cc565b5060010190565b8082018082111561032d5761032d6112cc565b634e487b7160e01b600052604160045260246000fd5b601f821115611370576000816000526020600020601f850160051c8101602086101561134d5750805b601f850160051c820191505b8181101561136c57828155600101611359565b5050505b505050565b815167ffffffffffffffff81111561138f5761138f61130e565b6113a38161139d8454611292565b84611324565b602080601f8311600181146113d857600084156113c05750858301515b600019600386901b1c1916600185901b17855561136c565b600085815260208120601f198616915b82811015611407578886015182559484019460019091019084016113e8565b50858210156114255787850151600019600388901b60f8161c191681555b5050505050600190811b01905550565b60808152846080820152848660a0830137600060a08683010152600060a0601f19601f88011683010190508460208301528360408301528260608301529695505050505050565b8181038181111561032d5761032d6112cc565b634e487b7160e01b600052603260045260246000fdfea264697066735822122088fbf85adede98f2fba9e0f1d5ba00ec7b09f88e1e81b2a75c73de22bad54dcc64736f6c63430008180033","opcodes":"PUSH1 0x80 PUSH1 0x40 MSTORE CALLVALUE DUP1 ISZERO PUSH2 0x10 JUMPI PUSH1 0x0 DUP1 REVERT JUMPDEST POP PUSH2 0x14DB DUP1 PUSH2 0x20 PUSH1 0x0 CODECOPY PUSH1 0x0 RETURN INVALID PUSH1 0x80 PUSH1 0x40 MSTORE CALLVALUE DUP1 ISZERO PUSH2 0x10 JUMPI PUSH1 0x0 DUP1 REVERT JUMPDEST POP PUSH1 0x4 CALLDATASIZE LT PUSH2 0x88 JUMPI PUSH1 0x0 CALLDATALOAD PUSH1 0xE0 SHR DUP1 PUSH4 0x9F2524EE GT PUSH2 0x5B JUMPI DUP1 PUSH4 0x9F2524EE EQ PUSH2 0x116 JUMPI DUP1 PUSH4 0xC7F758A8 EQ PUSH2 0x144 JUMPI DUP1 PUSH4 0xCCEB68F5 EQ PUSH2 0x16E JUMPI DUP1 PUSH4 0xDA35C664 EQ PUSH2 0x18A JUMPI PUSH1 0x0 DUP1 REVERT JUMPDEST DUP1 PUSH4 0x13CF08B EQ PUSH2 0x8D JUMPI DUP1 PUSH4 0x6B0DD90F EQ PUSH2 0xC0 JUMPI DUP1 PUSH4 0x6B5E1766 EQ PUSH2 0xE0 JUMPI DUP1 PUSH4 0x943E8216 EQ PUSH2 0x101 JUMPI JUMPDEST PUSH1 0x0 DUP1 REVERT JUMPDEST PUSH2 0xA0 PUSH2 0x9B CALLDATASIZE PUSH1 0x4 PUSH2 0xE2C JUMP JUMPDEST PUSH2 0x193 JUMP JUMPDEST PUSH1 0x40 MLOAD PUSH2 0xB7 SWAP12 SWAP11 SWAP10 SWAP9 SWAP8 SWAP7 SWAP6 SWAP5 SWAP4 SWAP3 SWAP2 SWAP1 PUSH2 0xE8B JUMP JUMPDEST PUSH1 0x40 MLOAD DUP1 SWAP2 SUB SWAP1 RETURN JUMPDEST PUSH2 0xD3 PUSH2 0xCE CALLDATASIZE PUSH1 0x4 PUSH2 0xF08 JUMP JUMPDEST PUSH2 0x305 JUMP JUMPDEST PUSH1 0x40 MLOAD PUSH2 0xB7 SWAP2 SWAP1 PUSH2 0xF56 JUMP JUMPDEST PUSH2 0xF3 PUSH2 0xEE CALLDATASIZE PUSH1 0x4 PUSH2 0xFB9 JUMP JUMPDEST PUSH2 0x333 JUMP JUMPDEST PUSH1 0x40 MLOAD SWAP1 DUP2 MSTORE PUSH1 0x20 ADD PUSH2 0xB7 JUMP JUMPDEST PUSH2 0x114 PUSH2 0x10F CALLDATASIZE PUSH1 0x4 PUSH2 0x1037 JUMP JUMPDEST PUSH2 0x58E JUMP JUMPDEST STOP JUMPDEST PUSH2 0xD3 PUSH2 0x124 CALLDATASIZE PUSH1 0x4 PUSH2 0xF08 JUMP JUMPDEST PUSH1 0x2 PUSH1 0x20 SWAP1 DUP2 MSTORE PUSH1 0x0 SWAP3 DUP4 MSTORE PUSH1 0x40 DUP1 DUP5 KECCAK256 SWAP1 SWAP2 MSTORE SWAP1 DUP3 MSTORE SWAP1 KECCAK256 SLOAD PUSH1 0xFF AND DUP2 JUMP JUMPDEST PUSH2 0x157 PUSH2 0x152 CALLDATASIZE PUSH1 0x4 PUSH2 0xE2C JUMP JUMPDEST PUSH2 0x785 JUMP JUMPDEST PUSH1 0x40 MLOAD PUSH2 0xB7 SWAP12 SWAP11 SWAP10 SWAP9 SWAP8 SWAP7 SWAP6 SWAP5 SWAP4 SWAP3 SWAP2 SWAP1 PUSH2 0x106B JUMP JUMPDEST PUSH2 0x176 PUSH2 0x980 JUMP JUMPDEST PUSH1 0x40 MLOAD PUSH2 0xB7 SWAP9 SWAP8 SWAP7 SWAP6 SWAP5 SWAP4 SWAP3 SWAP2 SWAP1 PUSH2 0x11A1 JUMP JUMPDEST PUSH2 0xF3 PUSH1 0x0 SLOAD DUP2 JUMP JUMPDEST PUSH1 0x1 PUSH1 0x20 DUP2 SWAP1 MSTORE PUSH1 0x0 SWAP2 DUP3 MSTORE PUSH1 0x40 SWAP1 SWAP2 KECCAK256 DUP1 SLOAD SWAP2 DUP2 ADD DUP1 SLOAD PUSH2 0x1B4 SWAP1 PUSH2 0x1292 JUMP JUMPDEST DUP1 PUSH1 0x1F ADD PUSH1 0x20 DUP1 SWAP2 DIV MUL PUSH1 0x20 ADD PUSH1 0x40 MLOAD SWAP1 DUP2 ADD PUSH1 0x40 MSTORE DUP1 SWAP3 SWAP2 SWAP1 DUP2 DUP2 MSTORE PUSH1 0x20 ADD DUP3 DUP1 SLOAD PUSH2 0x1E0 SWAP1 PUSH2 0x1292 JUMP JUMPDEST DUP1 ISZERO PUSH2 0x22D JUMPI DUP1 PUSH1 0x1F LT PUSH2 0x202 JUMPI PUSH2 0x100 DUP1 DUP4 SLOAD DIV MUL DUP4 MSTORE SWAP2 PUSH1 0x20 ADD SWAP2 PUSH2 0x22D JUMP JUMPDEST DUP3 ADD SWAP2 SWAP1 PUSH1 0x0 MSTORE PUSH1 0x20 PUSH1 0x0 KECCAK256 SWAP1 JUMPDEST DUP2 SLOAD DUP2 MSTORE SWAP1 PUSH1 0x1 ADD SWAP1 PUSH1 0x20 ADD DUP1 DUP4 GT PUSH2 0x210 JUMPI DUP3 SWAP1 SUB PUSH1 0x1F AND DUP3 ADD SWAP2 JUMPDEST POP POP POP POP POP SWAP1 DUP1 PUSH1 0x2 ADD DUP1 SLOAD PUSH2 0x242 SWAP1 PUSH2 0x1292 JUMP JUMPDEST DUP1 PUSH1 0x1F ADD PUSH1 0x20 DUP1 SWAP2 DIV MUL PUSH1 0x20 ADD PUSH1 0x40 MLOAD SWAP1 DUP2 ADD PUSH1 0x40 MSTORE DUP1 SWAP3 SWAP2 SWAP1 DUP2 DUP2 MSTORE PUSH1 0x20 ADD DUP3 DUP1 SLOAD PUSH2 0x26E SWAP1 PUSH2 0x1292 JUMP JUMPDEST DUP1 ISZERO PUSH2 0x2BB JUMPI DUP1 PUSH1 0x1F LT PUSH2 0x290 JUMPI PUSH2 0x100 DUP1 DUP4 SLOAD DIV MUL DUP4 MSTORE SWAP2 PUSH1 0x20 ADD SWAP2 PUSH2 0x2BB JUMP JUMPDEST DUP3 ADD SWAP2 SWAP1 PUSH1 0x0 MSTORE PUSH1 0x20 PUSH1 0x0 KECCAK256 SWAP1 JUMPDEST DUP2 SLOAD DUP2 MSTORE SWAP1 PUSH1 0x1 ADD SWAP1 PUSH1 0x20 ADD DUP1 DUP4 GT PUSH2 0x29E JUMPI DUP3 SWAP1 SUB PUSH1 0x1F AND DUP3 ADD SWAP2 JUMPDEST POP POP POP PUSH1 0x3 DUP5 ADD SLOAD PUSH1 0x4 DUP6 ADD SLOAD PUSH1 0x5 DUP7 ADD SLOAD PUSH1 0x6 DUP8 ADD SLOAD PUSH1 0x7 DUP9 ADD SLOAD PUSH1 0x8 DUP10 ADD SLOAD PUSH1 0x9 DUP11 ADD SLOAD PUSH1 0xA SWAP1 SWAP11 ADD SLOAD SWAP9 SWAP10 PUSH1 0x1 PUSH1 0x1 PUSH1 0xA0 SHL SUB SWAP1 SWAP7 AND SWAP9 SWAP5 SWAP8 POP SWAP3 SWAP6 POP SWAP1 SWAP4 SWAP1 SWAP3 PUSH1 0xFF AND DUP12 JUMP JUMPDEST PUSH1 0x1 PUSH1 0x1 PUSH1 0xA0 SHL SUB DUP3 AND PUSH1 0x0 SWAP1 DUP2 MSTORE PUSH1 0x2 PUSH1 0x20 SWAP1 DUP2 MSTORE PUSH1 0x40 DUP1 DUP4 KECCAK256 DUP5 DUP5 MSTORE SWAP1 SWAP2 MSTORE SWAP1 KECCAK256 SLOAD PUSH1 0xFF AND JUMPDEST SWAP3 SWAP2 POP POP JUMP JUMPDEST PUSH1 0x0 PUSH1 0xA DUP7 LT ISZERO PUSH2 0x357 JUMPI PUSH1 0x40 MLOAD PUSH4 0x24ACE355 PUSH1 0xE0 SHL DUP2 MSTORE PUSH1 0x4 ADD PUSH1 0x40 MLOAD DUP1 SWAP2 SUB SWAP1 REVERT JUMPDEST PUSH1 0x14 DUP5 LT ISZERO PUSH2 0x379 JUMPI PUSH1 0x40 MLOAD PUSH4 0x1B0BF735 PUSH1 0xE2 SHL DUP2 MSTORE PUSH1 0x4 ADD PUSH1 0x40 MLOAD DUP1 SWAP2 SUB SWAP1 REVERT JUMPDEST DUP3 PUSH1 0x0 SUB PUSH2 0x39A JUMPI PUSH1 0x40 MLOAD PUSH4 0x76166401 PUSH1 0xE0 SHL DUP2 MSTORE PUSH1 0x4 ADD PUSH1 0x40 MLOAD DUP1 SWAP2 SUB SWAP1 REVERT JUMPDEST PUSH1 0x0 DUP1 SLOAD SWAP1 DUP1 PUSH2 0x3A9 DUP4 PUSH2 0x12E2 JUMP JUMPDEST SWAP2 SWAP1 POP SSTORE POP PUSH1 0x0 DUP1 SLOAD SWAP1 POP PUSH1 0x40 MLOAD DUP1 PUSH2 0x160 ADD PUSH1 0x40 MSTORE DUP1 DUP3 DUP2 MSTORE PUSH1 0x20 ADD DUP10 DUP10 DUP1 DUP1 PUSH1 0x1F ADD PUSH1 0x20 DUP1 SWAP2 DIV MUL PUSH1 0x20 ADD PUSH1 0x40 MLOAD SWAP1 DUP2 ADD PUSH1 0x40 MSTORE DUP1 SWAP4 SWAP3 SWAP2 SWAP1 DUP2 DUP2 MSTORE PUSH1 0x20 ADD DUP4 DUP4 DUP1 DUP3 DUP5 CALLDATACOPY PUSH1 0x0 SWAP3 ADD SWAP2 SWAP1 SWAP2 MSTORE POP POP POP SWAP1 DUP3 MSTORE POP PUSH1 0x40 DUP1 MLOAD PUSH1 0x20 PUSH1 0x1F DUP11 ADD DUP2 SWAP1 DIV DUP2 MUL DUP3 ADD DUP2 ADD SWAP1 SWAP3 MSTORE DUP9 DUP2 MSTORE SWAP2 DUP2 ADD SWAP2 SWAP1 DUP10 SWAP1 DUP10 SWAP1 DUP2 SWAP1 DUP5 ADD DUP4 DUP3 DUP1 DUP3 DUP5 CALLDATACOPY PUSH1 0x0 SWAP3 ADD SWAP2 SWAP1 SWAP2 MSTORE POP POP POP SWAP1 DUP3 MSTORE POP CALLER PUSH1 0x20 DUP3 ADD MSTORE TIMESTAMP PUSH1 0x40 DUP3 ADD DUP2 SWAP1 MSTORE PUSH1 0x60 SWAP1 SWAP2 ADD SWAP1 PUSH2 0x459 SWAP1 DUP8 SWAP1 PUSH2 0x12FB JUMP JUMPDEST DUP2 MSTORE PUSH1 0x20 DUP1 DUP3 ADD DUP7 SWAP1 MSTORE PUSH1 0x0 PUSH1 0x40 DUP1 DUP5 ADD DUP3 SWAP1 MSTORE PUSH1 0x60 DUP5 ADD DUP3 SWAP1 MSTORE PUSH1 0x80 DUP5 ADD DUP3 SWAP1 MSTORE PUSH1 0x1 PUSH1 0xA0 SWAP1 SWAP5 ADD DUP5 SWAP1 MSTORE DUP6 DUP3 MSTORE DUP4 DUP4 MSTORE SWAP1 KECCAK256 DUP4 MLOAD DUP2 SSTORE SWAP1 DUP4 ADD MLOAD SWAP1 SWAP2 DUP3 ADD SWAP1 PUSH2 0x4A4 SWAP1 DUP3 PUSH2 0x1375 JUMP JUMPDEST POP PUSH1 0x40 DUP3 ADD MLOAD PUSH1 0x2 DUP3 ADD SWAP1 PUSH2 0x4B9 SWAP1 DUP3 PUSH2 0x1375 JUMP JUMPDEST POP PUSH1 0x60 DUP3 ADD MLOAD PUSH1 0x3 DUP3 ADD DUP1 SLOAD PUSH1 0x1 PUSH1 0x1 PUSH1 0xA0 SHL SUB NOT AND PUSH1 0x1 PUSH1 0x1 PUSH1 0xA0 SHL SUB SWAP1 SWAP3 AND SWAP2 SWAP1 SWAP2 OR SWAP1 SSTORE PUSH1 0x80 DUP3 ADD MLOAD PUSH1 0x4 DUP3 ADD SSTORE PUSH1 0xA0 DUP3 ADD MLOAD PUSH1 0x5 DUP3 ADD SSTORE PUSH1 0xC0 DUP3 ADD MLOAD PUSH1 0x6 DUP3 ADD SSTORE PUSH1 0xE0 DUP3 ADD MLOAD PUSH1 0x7 DUP3 ADD SSTORE PUSH2 0x100 DUP3 ADD MLOAD PUSH1 0x8 DUP3 ADD SSTORE PUSH2 0x120 DUP3 ADD MLOAD PUSH1 0x9 DUP3 ADD SSTORE PUSH2 0x140 SWAP1 SWAP2 ADD MLOAD PUSH1 0xA SWAP1 SWAP2 ADD DUP1 SLOAD PUSH1 0xFF NOT AND SWAP2 ISZERO ISZERO SWAP2 SWAP1 SWAP2 OR SWAP1 SSTORE CALLER DUP2 PUSH32 0x6B04E3D11C426737470E9F5CDD847185E72CB1B770B7B6781C49838732A9011E DUP11 DUP11 TIMESTAMP PUSH2 0x569 DUP11 DUP3 PUSH2 0x12FB JUMP JUMPDEST DUP10 PUSH1 0x40 MLOAD PUSH2 0x57B SWAP6 SWAP5 SWAP4 SWAP3 SWAP2 SWAP1 PUSH2 0x1435 JUMP JUMPDEST PUSH1 0x40 MLOAD DUP1 SWAP2 SUB SWAP1 LOG3 SWAP8 SWAP7 POP POP POP POP POP POP POP JUMP JUMPDEST PUSH1 0x0 DUP3 DUP2 MSTORE PUSH1 0x1 PUSH1 0x20 MSTORE PUSH1 0x40 SWAP1 KECCAK256 PUSH1 0xA DUP2 ADD SLOAD PUSH1 0xFF AND PUSH2 0x5C9 JUMPI PUSH1 0x40 MLOAD PUSH4 0x428D06A9 PUSH1 0xE0 SHL DUP2 MSTORE PUSH1 0x4 DUP2 ADD DUP5 SWAP1 MSTORE PUSH1 0x24 ADD JUMPDEST PUSH1 0x40 MLOAD DUP1 SWAP2 SUB SWAP1 REVERT JUMPDEST DUP1 PUSH1 0x4 ADD SLOAD TIMESTAMP LT DUP1 PUSH2 0x5DE JUMPI POP DUP1 PUSH1 0x5 ADD SLOAD TIMESTAMP GT JUMPDEST ISZERO PUSH2 0x5FF JUMPI PUSH1 0x40 MLOAD PUSH4 0x44980D8F PUSH1 0xE0 SHL DUP2 MSTORE PUSH1 0x4 DUP2 ADD DUP5 SWAP1 MSTORE PUSH1 0x24 ADD PUSH2 0x5C0 JUMP JUMPDEST CALLER PUSH1 0x0 SWAP1 DUP2 MSTORE PUSH1 0x2 PUSH1 0x20 SWAP1 DUP2 MSTORE PUSH1 0x40 DUP1 DUP4 KECCAK256 DUP7 DUP5 MSTORE SWAP1 SWAP2 MSTORE DUP2 KECCAK256 SLOAD PUSH1 0xFF AND PUSH1 0x3 DUP2 GT ISZERO PUSH2 0x62E JUMPI PUSH2 0x62E PUSH2 0xF40 JUMP JUMPDEST EQ PUSH2 0x655 JUMPI PUSH1 0x40 MLOAD PUSH4 0x4F9DA63 PUSH1 0xE0 SHL DUP2 MSTORE PUSH1 0x4 DUP2 ADD DUP5 SWAP1 MSTORE CALLER PUSH1 0x24 DUP3 ADD MSTORE PUSH1 0x44 ADD PUSH2 0x5C0 JUMP JUMPDEST PUSH1 0x0 DUP3 PUSH1 0x3 DUP2 GT ISZERO PUSH2 0x669 JUMPI PUSH2 0x669 PUSH2 0xF40 JUMP JUMPDEST SUB PUSH2 0x68A JUMPI PUSH1 0x40 MLOAD PUSH4 0x44980D8F PUSH1 0xE0 SHL DUP2 MSTORE PUSH1 0x4 DUP2 ADD DUP5 SWAP1 MSTORE PUSH1 0x24 ADD PUSH2 0x5C0 JUMP JUMPDEST CALLER PUSH1 0x0 SWAP1 DUP2 MSTORE PUSH1 0x2 PUSH1 0x20 SWAP1 DUP2 MSTORE PUSH1 0x40 DUP1 DUP4 KECCAK256 DUP7 DUP5 MSTORE SWAP1 SWAP2 MSTORE SWAP1 KECCAK256 DUP1 SLOAD DUP4 SWAP2 SWAP1 PUSH1 0xFF NOT AND PUSH1 0x1 DUP4 PUSH1 0x3 DUP2 GT ISZERO PUSH2 0x6C1 JUMPI PUSH2 0x6C1 PUSH2 0xF40 JUMP JUMPDEST MUL OR SWAP1 SSTORE POP PUSH1 0x1 DUP3 PUSH1 0x3 DUP2 GT ISZERO PUSH2 0x6DA JUMPI PUSH2 0x6DA PUSH2 0xF40 JUMP JUMPDEST SUB PUSH2 0x6FB JUMPI PUSH1 0x7 DUP2 ADD DUP1 SLOAD SWAP1 PUSH1 0x0 PUSH2 0x6F1 DUP4 PUSH2 0x12E2 JUMP JUMPDEST SWAP2 SWAP1 POP SSTORE POP PUSH2 0x73E JUMP JUMPDEST PUSH1 0x2 DUP3 PUSH1 0x3 DUP2 GT ISZERO PUSH2 0x70F JUMPI PUSH2 0x70F PUSH2 0xF40 JUMP JUMPDEST SUB PUSH2 0x726 JUMPI PUSH1 0x8 DUP2 ADD DUP1 SLOAD SWAP1 PUSH1 0x0 PUSH2 0x6F1 DUP4 PUSH2 0x12E2 JUMP JUMPDEST PUSH1 0x9 DUP2 ADD DUP1 SLOAD SWAP1 PUSH1 0x0 PUSH2 0x738 DUP4 PUSH2 0x12E2 JUMP JUMPDEST SWAP2 SWAP1 POP SSTORE POP JUMPDEST CALLER PUSH1 0x1 PUSH1 0x1 PUSH1 0xA0 SHL SUB AND DUP4 PUSH32 0x94F80829C509370ABB2D421A078BA5926755D3DE25D021DACF7BBD19853F7A2 DUP5 PUSH1 0x40 MLOAD PUSH2 0x778 SWAP2 SWAP1 PUSH2 0xF56 JUMP JUMPDEST PUSH1 0x40 MLOAD DUP1 SWAP2 SUB SWAP1 LOG3 POP POP POP JUMP JUMPDEST PUSH1 0x0 DUP2 DUP2 MSTORE PUSH1 0x1 PUSH1 0x20 MSTORE PUSH1 0x40 DUP2 KECCAK256 PUSH1 0xA DUP2 ADD SLOAD PUSH1 0x60 SWAP2 DUP3 SWAP2 DUP5 SWAP2 DUP3 SWAP2 DUP3 SWAP2 DUP3 SWAP2 DUP3 SWAP2 DUP3 SWAP2 DUP3 SWAP2 DUP3 SWAP2 PUSH1 0xFF AND PUSH2 0x7D0 JUMPI PUSH1 0x40 MLOAD PUSH4 0x428D06A9 PUSH1 0xE0 SHL DUP2 MSTORE PUSH1 0x4 DUP2 ADD DUP15 SWAP1 MSTORE PUSH1 0x24 ADD PUSH2 0x5C0 JUMP JUMPDEST PUSH1 0x0 DUP2 PUSH1 0x4 ADD SLOAD TIMESTAMP LT ISZERO PUSH2 0x7E6 JUMPI POP PUSH1 0x0 PUSH2 0x7FD JUMP JUMPDEST DUP2 PUSH1 0x5 ADD SLOAD TIMESTAMP GT PUSH2 0x7F9 JUMPI POP PUSH1 0x1 PUSH2 0x7FD JUMP JUMPDEST POP PUSH1 0x2 JUMPDEST DUP2 PUSH1 0x0 ADD SLOAD DUP3 PUSH1 0x1 ADD DUP4 PUSH1 0x2 ADD DUP5 PUSH1 0x3 ADD PUSH1 0x0 SWAP1 SLOAD SWAP1 PUSH2 0x100 EXP SWAP1 DIV PUSH1 0x1 PUSH1 0x1 PUSH1 0xA0 SHL SUB AND DUP6 PUSH1 0x4 ADD SLOAD DUP7 PUSH1 0x5 ADD SLOAD DUP8 PUSH1 0x6 ADD SLOAD DUP9 PUSH1 0x7 ADD SLOAD DUP10 PUSH1 0x8 ADD SLOAD DUP11 PUSH1 0x9 ADD SLOAD DUP11 DUP10 DUP1 SLOAD PUSH2 0x84D SWAP1 PUSH2 0x1292 JUMP JUMPDEST DUP1 PUSH1 0x1F ADD PUSH1 0x20 DUP1 SWAP2 DIV MUL PUSH1 0x20 ADD PUSH1 0x40 MLOAD SWAP1 DUP2 ADD PUSH1 0x40 MSTORE DUP1 SWAP3 SWAP2 SWAP1 DUP2 DUP2 MSTORE PUSH1 0x20 ADD DUP3 DUP1 SLOAD PUSH2 0x879 SWAP1 PUSH2 0x1292 JUMP JUMPDEST DUP1 ISZERO PUSH2 0x8C6 JUMPI DUP1 PUSH1 0x1F LT PUSH2 0x89B JUMPI PUSH2 0x100 DUP1 DUP4 SLOAD DIV MUL DUP4 MSTORE SWAP2 PUSH1 0x20 ADD SWAP2 PUSH2 0x8C6 JUMP JUMPDEST DUP3 ADD SWAP2 SWAP1 PUSH1 0x0 MSTORE PUSH1 0x20 PUSH1 0x0 KECCAK256 SWAP1 JUMPDEST DUP2 SLOAD DUP2 MSTORE SWAP1 PUSH1 0x1 ADD SWAP1 PUSH1 0x20 ADD DUP1 DUP4 GT PUSH2 0x8A9 JUMPI DUP3 SWAP1 SUB PUSH1 0x1F AND DUP3 ADD SWAP2 JUMPDEST POP POP POP POP POP SWAP10 POP DUP9 DUP1 SLOAD PUSH2 0x8D9 SWAP1 PUSH2 0x1292 JUMP JUMPDEST DUP1 PUSH1 0x1F ADD PUSH1 0x20 DUP1 SWAP2 DIV MUL PUSH1 0x20 ADD PUSH1 0x40 MLOAD SWAP1 DUP2 ADD PUSH1 0x40 MSTORE DUP1 SWAP3 SWAP2 SWAP1 DUP2 DUP2 MSTORE PUSH1 0x20 ADD DUP3 DUP1 SLOAD PUSH2 0x905 SWAP1 PUSH2 0x1292 JUMP JUMPDEST DUP1 ISZERO PUSH2 0x952 JUMPI DUP1 PUSH1 0x1F LT PUSH2 0x927 JUMPI PUSH2 0x100 DUP1 DUP4 SLOAD DIV MUL DUP4 MSTORE SWAP2 PUSH1 0x20 ADD SWAP2 PUSH2 0x952 JUMP JUMPDEST DUP3 ADD SWAP2 SWAP1 PUSH1 0x0 MSTORE PUSH1 0x20 PUSH1 0x0 KECCAK256 SWAP1 JUMPDEST DUP2 SLOAD DUP2 MSTORE SWAP1 PUSH1 0x1 ADD SWAP1 PUSH1 0x20 ADD DUP1 DUP4 GT PUSH2 0x935 JUMPI DUP3 SWAP1 SUB PUSH1 0x1F AND DUP3 ADD SWAP2 JUMPDEST POP POP POP POP POP SWAP9 POP SWAP13 POP SWAP13 POP SWAP13 POP SWAP13 POP SWAP13 POP SWAP13 POP SWAP13 POP SWAP13 POP SWAP13 POP SWAP13 POP SWAP13 POP POP POP SWAP2 SWAP4 SWAP6 SWAP8 SWAP10 SWAP12 SWAP1 SWAP3 SWAP5 SWAP7 SWAP9 SWAP11 POP JUMP JUMPDEST PUSH1 0x60 DUP1 PUSH1 0x60 DUP1 PUSH1 0x60 DUP1 PUSH1 0x60 DUP1 PUSH1 0x0 DUP1 SLOAD SWAP1 POP DUP1 PUSH8 0xFFFFFFFFFFFFFFFF DUP2 GT ISZERO PUSH2 0x9AB JUMPI PUSH2 0x9AB PUSH2 0x130E JUMP JUMPDEST PUSH1 0x40 MLOAD SWAP1 DUP1 DUP3 MSTORE DUP1 PUSH1 0x20 MUL PUSH1 0x20 ADD DUP3 ADD PUSH1 0x40 MSTORE DUP1 ISZERO PUSH2 0x9D4 JUMPI DUP2 PUSH1 0x20 ADD PUSH1 0x20 DUP3 MUL DUP1 CALLDATASIZE DUP4 CALLDATACOPY ADD SWAP1 POP JUMPDEST POP SWAP9 POP DUP1 PUSH8 0xFFFFFFFFFFFFFFFF DUP2 GT ISZERO PUSH2 0x9F0 JUMPI PUSH2 0x9F0 PUSH2 0x130E JUMP JUMPDEST PUSH1 0x40 MLOAD SWAP1 DUP1 DUP3 MSTORE DUP1 PUSH1 0x20 MUL PUSH1 0x20 ADD DUP3 ADD PUSH1 0x40 MSTORE DUP1 ISZERO PUSH2 0xA23 JUMPI DUP2 PUSH1 0x20 ADD JUMPDEST PUSH1 0x60 DUP2 MSTORE PUSH1 0x20 ADD SWAP1 PUSH1 0x1 SWAP1 SUB SWAP1 DUP2 PUSH2 0xA0E JUMPI SWAP1 POP JUMPDEST POP SWAP8 POP DUP1 PUSH8 0xFFFFFFFFFFFFFFFF DUP2 GT ISZERO PUSH2 0xA3F JUMPI PUSH2 0xA3F PUSH2 0x130E JUMP JUMPDEST PUSH1 0x40 MLOAD SWAP1 DUP1 DUP3 MSTORE DUP1 PUSH1 0x20 MUL PUSH1 0x20 ADD DUP3 ADD PUSH1 0x40 MSTORE DUP1 ISZERO PUSH2 0xA68 JUMPI DUP2 PUSH1 0x20 ADD PUSH1 0x20 DUP3 MUL DUP1 CALLDATASIZE DUP4 CALLDATACOPY ADD SWAP1 POP JUMPDEST POP SWAP7 POP DUP1 PUSH8 0xFFFFFFFFFFFFFFFF DUP2 GT ISZERO PUSH2 0xA84 JUMPI PUSH2 0xA84 PUSH2 0x130E JUMP JUMPDEST PUSH1 0x40 MLOAD SWAP1 DUP1 DUP3 MSTORE DUP1 PUSH1 0x20 MUL PUSH1 0x20 ADD DUP3 ADD PUSH1 0x40 MSTORE DUP1 ISZERO PUSH2 0xAAD JUMPI DUP2 PUSH1 0x20 ADD PUSH1 0x20 DUP3 MUL DUP1 CALLDATASIZE DUP4 CALLDATACOPY ADD SWAP1 POP JUMPDEST POP SWAP6 POP DUP1 PUSH8 0xFFFFFFFFFFFFFFFF DUP2 GT ISZERO PUSH2 0xAC9 JUMPI PUSH2 0xAC9 PUSH2 0x130E JUMP JUMPDEST PUSH1 0x40 MLOAD SWAP1 DUP1 DUP3 MSTORE DUP1 PUSH1 0x20 MUL PUSH1 0x20 ADD DUP3 ADD PUSH1 0x40 MSTORE DUP1 ISZERO PUSH2 0xAF2 JUMPI DUP2 PUSH1 0x20 ADD PUSH1 0x20 DUP3 MUL DUP1 CALLDATASIZE DUP4 CALLDATACOPY ADD SWAP1 POP JUMPDEST POP SWAP5 POP DUP1 PUSH8 0xFFFFFFFFFFFFFFFF DUP2 GT ISZERO PUSH2 0xB0E JUMPI PUSH2 0xB0E PUSH2 0x130E JUMP JUMPDEST PUSH1 0x40 MLOAD SWAP1 DUP1 DUP3 MSTORE DUP1 PUSH1 0x20 MUL PUSH1 0x20 ADD DUP3 ADD PUSH1 0x40 MSTORE DUP1 ISZERO PUSH2 0xB37 JUMPI DUP2 PUSH1 0x20 ADD PUSH1 0x20 DUP3 MUL DUP1 CALLDATASIZE DUP4 CALLDATACOPY ADD SWAP1 POP JUMPDEST POP SWAP4 POP DUP1 PUSH8 0xFFFFFFFFFFFFFFFF DUP2 GT ISZERO PUSH2 0xB53 JUMPI PUSH2 0xB53 PUSH2 0x130E JUMP JUMPDEST PUSH1 0x40 MLOAD SWAP1 DUP1 DUP3 MSTORE DUP1 PUSH1 0x20 MUL PUSH1 0x20 ADD DUP3 ADD PUSH1 0x40 MSTORE DUP1 ISZERO PUSH2 0xB7C JUMPI DUP2 PUSH1 0x20 ADD PUSH1 0x20 DUP3 MUL DUP1 CALLDATASIZE DUP4 CALLDATACOPY ADD SWAP1 POP JUMPDEST POP SWAP3 POP DUP1 PUSH8 0xFFFFFFFFFFFFFFFF DUP2 GT ISZERO PUSH2 0xB98 JUMPI PUSH2 0xB98 PUSH2 0x130E JUMP JUMPDEST PUSH1 0x40 MLOAD SWAP1 DUP1 DUP3 MSTORE DUP1 PUSH1 0x20 MUL PUSH1 0x20 ADD DUP3 ADD PUSH1 0x40 MSTORE DUP1 ISZERO PUSH2 0xBC1 JUMPI DUP2 PUSH1 0x20 ADD PUSH1 0x20 DUP3 MUL DUP1 CALLDATASIZE DUP4 CALLDATACOPY ADD SWAP1 POP JUMPDEST POP SWAP2 POP PUSH1 0x1 JUMPDEST DUP2 DUP2 GT PUSH2 0xE20 JUMPI PUSH1 0x0 DUP2 DUP2 MSTORE PUSH1 0x1 PUSH1 0x20 DUP2 SWAP1 MSTORE PUSH1 0x40 DUP3 KECCAK256 SWAP2 SWAP1 PUSH2 0xBEA SWAP1 DUP5 PUSH2 0x147C JUMP JUMPDEST SWAP1 POP DUP2 PUSH1 0x0 ADD SLOAD DUP13 DUP3 DUP2 MLOAD DUP2 LT PUSH2 0xC03 JUMPI PUSH2 0xC03 PUSH2 0x148F JUMP JUMPDEST PUSH1 0x20 MUL PUSH1 0x20 ADD ADD DUP2 DUP2 MSTORE POP POP DUP2 PUSH1 0x1 ADD DUP1 SLOAD PUSH2 0xC1E SWAP1 PUSH2 0x1292 JUMP JUMPDEST DUP1 PUSH1 0x1F ADD PUSH1 0x20 DUP1 SWAP2 DIV MUL PUSH1 0x20 ADD PUSH1 0x40 MLOAD SWAP1 DUP2 ADD PUSH1 0x40 MSTORE DUP1 SWAP3 SWAP2 SWAP1 DUP2 DUP2 MSTORE PUSH1 0x20 ADD DUP3 DUP1 SLOAD PUSH2 0xC4A SWAP1 PUSH2 0x1292 JUMP JUMPDEST DUP1 ISZERO PUSH2 0xC97 JUMPI DUP1 PUSH1 0x1F LT PUSH2 0xC6C JUMPI PUSH2 0x100 DUP1 DUP4 SLOAD DIV MUL DUP4 MSTORE SWAP2 PUSH1 0x20 ADD SWAP2 PUSH2 0xC97 JUMP JUMPDEST DUP3 ADD SWAP2 SWAP1 PUSH1 0x0 MSTORE PUSH1 0x20 PUSH1 0x0 KECCAK256 SWAP1 JUMPDEST DUP2 SLOAD DUP2 MSTORE SWAP1 PUSH1 0x1 ADD SWAP1 PUSH1 0x20 ADD DUP1 DUP4 GT PUSH2 0xC7A JUMPI DUP3 SWAP1 SUB PUSH1 0x1F AND DUP3 ADD SWAP2 JUMPDEST POP POP POP POP POP DUP12 DUP3 DUP2 MLOAD DUP2 LT PUSH2 0xCAE JUMPI PUSH2 0xCAE PUSH2 0x148F JUMP JUMPDEST PUSH1 0x20 SWAP1 DUP2 MUL SWAP2 SWAP1 SWAP2 ADD ADD MSTORE PUSH1 0x3 DUP3 ADD SLOAD DUP11 MLOAD PUSH1 0x1 PUSH1 0x1 PUSH1 0xA0 SHL SUB SWAP1 SWAP2 AND SWAP1 DUP12 SWAP1 DUP4 SWAP1 DUP2 LT PUSH2 0xCDE JUMPI PUSH2 0xCDE PUSH2 0x148F JUMP JUMPDEST PUSH1 0x20 MUL PUSH1 0x20 ADD ADD SWAP1 PUSH1 0x1 PUSH1 0x1 PUSH1 0xA0 SHL SUB AND SWAP1 DUP2 PUSH1 0x1 PUSH1 0x1 PUSH1 0xA0 SHL SUB AND DUP2 MSTORE POP POP DUP2 PUSH1 0x7 ADD SLOAD DUP10 DUP3 DUP2 MLOAD DUP2 LT PUSH2 0xD15 JUMPI PUSH2 0xD15 PUSH2 0x148F JUMP JUMPDEST PUSH1 0x20 MUL PUSH1 0x20 ADD ADD DUP2 DUP2 MSTORE POP POP DUP2 PUSH1 0x8 ADD SLOAD DUP9 DUP3 DUP2 MLOAD DUP2 LT PUSH2 0xD38 JUMPI PUSH2 0xD38 PUSH2 0x148F JUMP JUMPDEST PUSH1 0x20 MUL PUSH1 0x20 ADD ADD DUP2 DUP2 MSTORE POP POP DUP2 PUSH1 0x9 ADD SLOAD DUP8 DUP3 DUP2 MLOAD DUP2 LT PUSH2 0xD5B JUMPI PUSH2 0xD5B PUSH2 0x148F JUMP JUMPDEST PUSH1 0x20 MUL PUSH1 0x20 ADD ADD DUP2 DUP2 MSTORE POP POP DUP2 PUSH1 0x5 ADD SLOAD DUP7 DUP3 DUP2 MLOAD DUP2 LT PUSH2 0xD7E JUMPI PUSH2 0xD7E PUSH2 0x148F JUMP JUMPDEST PUSH1 0x20 MUL PUSH1 0x20 ADD ADD DUP2 DUP2 MSTORE POP POP DUP2 PUSH1 0x4 ADD SLOAD TIMESTAMP LT ISZERO PUSH2 0xDC3 JUMPI PUSH1 0x0 DUP6 DUP3 DUP2 MLOAD DUP2 LT PUSH2 0xDAA JUMPI PUSH2 0xDAA PUSH2 0x148F JUMP JUMPDEST PUSH1 0x20 MUL PUSH1 0x20 ADD ADD SWAP1 PUSH1 0xFF AND SWAP1 DUP2 PUSH1 0xFF AND DUP2 MSTORE POP POP PUSH2 0xE0B JUMP JUMPDEST DUP2 PUSH1 0x5 ADD SLOAD TIMESTAMP GT PUSH2 0xDE2 JUMPI PUSH1 0x1 DUP6 DUP3 DUP2 MLOAD DUP2 LT PUSH2 0xDAA JUMPI PUSH2 0xDAA PUSH2 0x148F JUMP JUMPDEST PUSH1 0x2 DUP6 DUP3 DUP2 MLOAD DUP2 LT PUSH2 0xDF6 JUMPI PUSH2 0xDF6 PUSH2 0x148F JUMP JUMPDEST PUSH1 0x20 MUL PUSH1 0x20 ADD ADD SWAP1 PUSH1 0xFF AND SWAP1 DUP2 PUSH1 0xFF AND DUP2 MSTORE POP POP JUMPDEST POP POP DUP1 DUP1 PUSH2 0xE18 SWAP1 PUSH2 0x12E2 JUMP JUMPDEST SWAP2 POP POP PUSH2 0xBC7 JUMP JUMPDEST POP POP SWAP1 SWAP2 SWAP3 SWAP4 SWAP5 SWAP6 SWAP7 SWAP8 JUMP JUMPDEST PUSH1 0x0 PUSH1 0x20 DUP3 DUP5 SUB SLT ISZERO PUSH2 0xE3E JUMPI PUSH1 0x0 DUP1 REVERT JUMPDEST POP CALLDATALOAD SWAP2 SWAP1 POP JUMP JUMPDEST PUSH1 0x0 DUP2 MLOAD DUP1 DUP5 MSTORE PUSH1 0x0 JUMPDEST DUP2 DUP2 LT ISZERO PUSH2 0xE6B JUMPI PUSH1 0x20 DUP2 DUP6 ADD DUP2 ADD MLOAD DUP7 DUP4 ADD DUP3 ADD MSTORE ADD PUSH2 0xE4F JUMP JUMPDEST POP PUSH1 0x0 PUSH1 0x20 DUP3 DUP7 ADD ADD MSTORE PUSH1 0x20 PUSH1 0x1F NOT PUSH1 0x1F DUP4 ADD AND DUP6 ADD ADD SWAP2 POP POP SWAP3 SWAP2 POP POP JUMP JUMPDEST PUSH1 0x0 PUSH2 0x160 DUP14 DUP4 MSTORE DUP1 PUSH1 0x20 DUP5 ADD MSTORE PUSH2 0xEA5 DUP2 DUP5 ADD DUP15 PUSH2 0xE45 JUMP JUMPDEST SWAP1 POP DUP3 DUP2 SUB PUSH1 0x40 DUP5 ADD MSTORE PUSH2 0xEB9 DUP2 DUP14 PUSH2 0xE45 JUMP JUMPDEST PUSH1 0x1 PUSH1 0x1 PUSH1 0xA0 SHL SUB SWAP12 SWAP1 SWAP12 AND PUSH1 0x60 DUP5 ADD MSTORE POP POP PUSH1 0x80 DUP2 ADD SWAP8 SWAP1 SWAP8 MSTORE PUSH1 0xA0 DUP8 ADD SWAP6 SWAP1 SWAP6 MSTORE PUSH1 0xC0 DUP7 ADD SWAP4 SWAP1 SWAP4 MSTORE PUSH1 0xE0 DUP6 ADD SWAP2 SWAP1 SWAP2 MSTORE PUSH2 0x100 DUP5 ADD MSTORE PUSH2 0x120 DUP4 ADD MSTORE ISZERO ISZERO PUSH2 0x140 SWAP1 SWAP2 ADD MSTORE SWAP4 SWAP3 POP POP POP JUMP JUMPDEST PUSH1 0x0 DUP1 PUSH1 0x40 DUP4 DUP6 SUB SLT ISZERO PUSH2 0xF1B JUMPI PUSH1 0x0 DUP1 REVERT JUMPDEST DUP3 CALLDATALOAD PUSH1 0x1 PUSH1 0x1 PUSH1 0xA0 SHL SUB DUP2 AND DUP2 EQ PUSH2 0xF32 JUMPI PUSH1 0x0 DUP1 REVERT JUMPDEST SWAP5 PUSH1 0x20 SWAP4 SWAP1 SWAP4 ADD CALLDATALOAD SWAP4 POP POP POP JUMP JUMPDEST PUSH4 0x4E487B71 PUSH1 0xE0 SHL PUSH1 0x0 MSTORE PUSH1 0x21 PUSH1 0x4 MSTORE PUSH1 0x24 PUSH1 0x0 REVERT JUMPDEST PUSH1 0x20 DUP2 ADD PUSH1 0x4 DUP4 LT PUSH2 0xF6A JUMPI PUSH2 0xF6A PUSH2 0xF40 JUMP JUMPDEST SWAP2 SWAP1 MSTORE SWAP1 JUMP JUMPDEST PUSH1 0x0 DUP1 DUP4 PUSH1 0x1F DUP5 ADD SLT PUSH2 0xF82 JUMPI PUSH1 0x0 DUP1 REVERT JUMPDEST POP DUP2 CALLDATALOAD PUSH8 0xFFFFFFFFFFFFFFFF DUP2 GT ISZERO PUSH2 0xF9A JUMPI PUSH1 0x0 DUP1 REVERT JUMPDEST PUSH1 0x20 DUP4 ADD SWAP2 POP DUP4 PUSH1 0x20 DUP3 DUP6 ADD ADD GT ISZERO PUSH2 0xFB2 JUMPI PUSH1 0x0 DUP1 REVERT JUMPDEST SWAP3 POP SWAP3 SWAP1 POP JUMP JUMPDEST PUSH1 0x0 DUP1 PUSH1 0x0 DUP1 PUSH1 0x0 DUP1 PUSH1 0x80 DUP8 DUP10 SUB SLT ISZERO PUSH2 0xFD2 JUMPI PUSH1 0x0 DUP1 REVERT JUMPDEST DUP7 CALLDATALOAD PUSH8 0xFFFFFFFFFFFFFFFF DUP1 DUP3 GT ISZERO PUSH2 0xFEA JUMPI PUSH1 0x0 DUP1 REVERT JUMPDEST PUSH2 0xFF6 DUP11 DUP4 DUP12 ADD PUSH2 0xF70 JUMP JUMPDEST SWAP1 SWAP9 POP SWAP7 POP PUSH1 0x20 DUP10 ADD CALLDATALOAD SWAP2 POP DUP1 DUP3 GT ISZERO PUSH2 0x100F JUMPI PUSH1 0x0 DUP1 REVERT JUMPDEST POP PUSH2 0x101C DUP10 DUP3 DUP11 ADD PUSH2 0xF70 JUMP JUMPDEST SWAP8 SWAP11 SWAP7 SWAP10 POP SWAP8 PUSH1 0x40 DUP2 ADD CALLDATALOAD SWAP7 PUSH1 0x60 SWAP1 SWAP2 ADD CALLDATALOAD SWAP6 POP SWAP4 POP POP POP POP JUMP JUMPDEST PUSH1 0x0 DUP1 PUSH1 0x40 DUP4 DUP6 SUB SLT ISZERO PUSH2 0x104A JUMPI PUSH1 0x0 DUP1 REVERT JUMPDEST DUP3 CALLDATALOAD SWAP2 POP PUSH1 0x20 DUP4 ADD CALLDATALOAD PUSH1 0x4 DUP2 LT PUSH2 0x1060 JUMPI PUSH1 0x0 DUP1 REVERT JUMPDEST DUP1 SWAP2 POP POP SWAP3 POP SWAP3 SWAP1 POP JUMP JUMPDEST PUSH1 0x0 PUSH2 0x160 DUP14 DUP4 MSTORE DUP1 PUSH1 0x20 DUP5 ADD MSTORE PUSH2 0x1085 DUP2 DUP5 ADD DUP15 PUSH2 0xE45 JUMP JUMPDEST SWAP1 POP DUP3 DUP2 SUB PUSH1 0x40 DUP5 ADD MSTORE PUSH2 0x1099 DUP2 DUP14 PUSH2 0xE45 JUMP JUMPDEST SWAP2 POP POP PUSH1 0x1 DUP1 PUSH1 0xA0 SHL SUB DUP11 AND PUSH1 0x60 DUP4 ADD MSTORE DUP9 PUSH1 0x80 DUP4 ADD MSTORE DUP8 PUSH1 0xA0 DUP4 ADD MSTORE DUP7 PUSH1 0xC0 DUP4 ADD MSTORE DUP6 PUSH1 0xE0 DUP4 ADD MSTORE DUP5 PUSH2 0x100 DUP4 ADD MSTORE DUP4 PUSH2 0x120 DUP4 ADD MSTORE PUSH1 0x3 DUP4 LT PUSH2 0x10E0 JUMPI PUSH2 0x10E0 PUSH2 0xF40 JUMP JUMPDEST DUP3 PUSH2 0x140 DUP4 ADD MSTORE SWAP13 SWAP12 POP POP POP POP POP POP POP POP POP POP POP POP JUMP JUMPDEST PUSH1 0x0 DUP2 MLOAD DUP1 DUP5 MSTORE PUSH1 0x20 DUP1 DUP6 ADD SWAP5 POP PUSH1 0x20 DUP5 ADD PUSH1 0x0 JUMPDEST DUP4 DUP2 LT ISZERO PUSH2 0x1128 JUMPI DUP2 MLOAD DUP8 MSTORE SWAP6 DUP3 ADD SWAP6 SWAP1 DUP3 ADD SWAP1 PUSH1 0x1 ADD PUSH2 0x110C JUMP JUMPDEST POP SWAP5 SWAP6 SWAP5 POP POP POP POP POP JUMP JUMPDEST PUSH1 0x0 DUP2 MLOAD DUP1 DUP5 MSTORE PUSH1 0x20 DUP1 DUP6 ADD SWAP5 POP PUSH1 0x20 DUP5 ADD PUSH1 0x0 JUMPDEST DUP4 DUP2 LT ISZERO PUSH2 0x1128 JUMPI DUP2 MLOAD PUSH1 0x1 PUSH1 0x1 PUSH1 0xA0 SHL SUB AND DUP8 MSTORE SWAP6 DUP3 ADD SWAP6 SWAP1 DUP3 ADD SWAP1 PUSH1 0x1 ADD PUSH2 0x1148 JUMP JUMPDEST PUSH1 0x0 DUP2 MLOAD DUP1 DUP5 MSTORE PUSH1 0x20 DUP1 DUP6 ADD SWAP5 POP PUSH1 0x20 DUP5 ADD PUSH1 0x0 JUMPDEST DUP4 DUP2 LT ISZERO PUSH2 0x1128 JUMPI DUP2 MLOAD PUSH1 0xFF AND DUP8 MSTORE SWAP6 DUP3 ADD SWAP6 SWAP1 DUP3 ADD SWAP1 PUSH1 0x1 ADD PUSH2 0x1182 JUMP JUMPDEST PUSH1 0x0 PUSH2 0x100 DUP1 DUP4 MSTORE PUSH2 0x11B5 DUP2 DUP5 ADD DUP13 PUSH2 0x10F7 JUMP JUMPDEST SWAP1 POP PUSH1 0x20 DUP4 DUP3 SUB DUP2 DUP6 ADD MSTORE DUP2 DUP12 MLOAD DUP1 DUP5 MSTORE DUP3 DUP5 ADD SWAP2 POP DUP3 DUP2 PUSH1 0x5 SHL DUP6 ADD ADD DUP4 DUP15 ADD PUSH1 0x0 JUMPDEST DUP4 DUP2 LT ISZERO PUSH2 0x1207 JUMPI PUSH1 0x1F NOT DUP8 DUP5 SUB ADD DUP6 MSTORE PUSH2 0x11F5 DUP4 DUP4 MLOAD PUSH2 0xE45 JUMP JUMPDEST SWAP5 DUP7 ADD SWAP5 SWAP3 POP SWAP1 DUP6 ADD SWAP1 PUSH1 0x1 ADD PUSH2 0x11D9 JUMP JUMPDEST POP POP DUP7 DUP2 SUB PUSH1 0x40 DUP9 ADD MSTORE PUSH2 0x121B DUP2 DUP15 PUSH2 0x1133 JUMP JUMPDEST SWAP5 POP POP POP POP POP DUP3 DUP2 SUB PUSH1 0x60 DUP5 ADD MSTORE PUSH2 0x1233 DUP2 DUP10 PUSH2 0x10F7 JUMP JUMPDEST SWAP1 POP DUP3 DUP2 SUB PUSH1 0x80 DUP5 ADD MSTORE PUSH2 0x1247 DUP2 DUP9 PUSH2 0x10F7 JUMP JUMPDEST SWAP1 POP DUP3 DUP2 SUB PUSH1 0xA0 DUP5 ADD MSTORE PUSH2 0x125B DUP2 DUP8 PUSH2 0x10F7 JUMP JUMPDEST SWAP1 POP DUP3 DUP2 SUB PUSH1 0xC0 DUP5 ADD MSTORE PUSH2 0x126F DUP2 DUP7 PUSH2 0x10F7 JUMP JUMPDEST SWAP1 POP DUP3 DUP2 SUB PUSH1 0xE0 DUP5 ADD MSTORE PUSH2 0x1283 DUP2 DUP6 PUSH2 0x116D JUMP JUMPDEST SWAP12 SWAP11 POP POP POP POP POP POP POP POP POP POP POP JUMP JUMPDEST PUSH1 0x1 DUP2 DUP2 SHR SWAP1 DUP3 AND DUP1 PUSH2 0x12A6 JUMPI PUSH1 0x7F DUP3 AND SWAP2 POP JUMPDEST PUSH1 0x20 DUP3 LT DUP2 SUB PUSH2 0x12C6 JUMPI PUSH4 0x4E487B71 PUSH1 0xE0 SHL PUSH1 0x0 MSTORE PUSH1 0x22 PUSH1 0x4 MSTORE PUSH1 0x24 PUSH1 0x0 REVERT JUMPDEST POP SWAP2 SWAP1 POP JUMP JUMPDEST PUSH4 0x4E487B71 PUSH1 0xE0 SHL PUSH1 0x0 MSTORE PUSH1 0x11 PUSH1 0x4 MSTORE PUSH1 0x24 PUSH1 0x0 REVERT JUMPDEST PUSH1 0x0 PUSH1 0x1 DUP3 ADD PUSH2 0x12F4 JUMPI PUSH2 0x12F4 PUSH2 0x12CC JUMP JUMPDEST POP PUSH1 0x1 ADD SWAP1 JUMP JUMPDEST DUP1 DUP3 ADD DUP1 DUP3 GT ISZERO PUSH2 0x32D JUMPI PUSH2 0x32D PUSH2 0x12CC JUMP JUMPDEST PUSH4 0x4E487B71 PUSH1 0xE0 SHL PUSH1 0x0 MSTORE PUSH1 0x41 PUSH1 0x4 MSTORE PUSH1 0x24 PUSH1 0x0 REVERT JUMPDEST PUSH1 0x1F DUP3 GT ISZERO PUSH2 0x1370 JUMPI PUSH1 0x0 DUP2 PUSH1 0x0 MSTORE PUSH1 0x20 PUSH1 0x0 KECCAK256 PUSH1 0x1F DUP6 ADD PUSH1 0x5 SHR DUP2 ADD PUSH1 0x20 DUP7 LT ISZERO PUSH2 0x134D JUMPI POP DUP1 JUMPDEST PUSH1 0x1F DUP6 ADD PUSH1 0x5 SHR DUP3 ADD SWAP2 POP JUMPDEST DUP2 DUP2 LT ISZERO PUSH2 0x136C JUMPI DUP3 DUP2 SSTORE PUSH1 0x1 ADD PUSH2 0x1359 JUMP JUMPDEST POP POP POP JUMPDEST POP POP POP JUMP JUMPDEST DUP2 MLOAD PUSH8 0xFFFFFFFFFFFFFFFF DUP2 GT ISZERO PUSH2 0x138F JUMPI PUSH2 0x138F PUSH2 0x130E JUMP JUMPDEST PUSH2 0x13A3 DUP2 PUSH2 0x139D DUP5 SLOAD PUSH2 0x1292 JUMP JUMPDEST DUP5 PUSH2 0x1324 JUMP JUMPDEST PUSH1 0x20 DUP1 PUSH1 0x1F DUP4 GT PUSH1 0x1 DUP2 EQ PUSH2 0x13D8 JUMPI PUSH1 0x0 DUP5 ISZERO PUSH2 0x13C0 JUMPI POP DUP6 DUP4 ADD MLOAD JUMPDEST PUSH1 0x0 NOT PUSH1 0x3 DUP7 SWAP1 SHL SHR NOT AND PUSH1 0x1 DUP6 SWAP1 SHL OR DUP6 SSTORE PUSH2 0x136C JUMP JUMPDEST PUSH1 0x0 DUP6 DUP2 MSTORE PUSH1 0x20 DUP2 KECCAK256 PUSH1 0x1F NOT DUP7 AND SWAP2 JUMPDEST DUP3 DUP2 LT ISZERO PUSH2 0x1407 JUMPI DUP9 DUP7 ADD MLOAD DUP3 SSTORE SWAP5 DUP5 ADD SWAP5 PUSH1 0x1 SWAP1 SWAP2 ADD SWAP1 DUP5 ADD PUSH2 0x13E8 JUMP JUMPDEST POP DUP6 DUP3 LT ISZERO PUSH2 0x1425 JUMPI DUP8 DUP6 ADD MLOAD PUSH1 0x0 NOT PUSH1 0x3 DUP9 SWAP1 SHL PUSH1 0xF8 AND SHR NOT AND DUP2 SSTORE JUMPDEST POP POP POP POP POP PUSH1 0x1 SWAP1 DUP2 SHL ADD SWAP1 SSTORE POP JUMP JUMPDEST PUSH1 0x80 DUP2 MSTORE DUP5 PUSH1 0x80 DUP3 ADD MSTORE DUP5 DUP7 PUSH1 0xA0 DUP4 ADD CALLDATACOPY PUSH1 0x0 PUSH1 0xA0 DUP7 DUP4 ADD ADD MSTORE PUSH1 0x0 PUSH1 0xA0 PUSH1 0x1F NOT PUSH1 0x1F DUP9 ADD AND DUP4 ADD ADD SWAP1 POP DUP5 PUSH1 0x20 DUP4 ADD MSTORE DUP4 PUSH1 0x40 DUP4 ADD MSTORE DUP3 PUSH1 0x60 DUP4 ADD MSTORE SWAP7 SWAP6 POP POP POP POP POP POP JUMP JUMPDEST DUP2 DUP2 SUB DUP2 DUP2 GT ISZERO PUSH2 0x32D JUMPI PUSH2 0x32D PUSH2 0x12CC JUMP JUMPDEST PUSH4 0x4E487B71 PUSH1 0xE0 SHL PUSH1 0x0 MSTORE PUSH1 0x32 PUSH1 0x4 MSTORE PUSH1 0x24 PUSH1 0x0 REVERT INVALID LOG2 PUSH5 0x6970667358 0x22 SLT KECCAK256 DUP9 0xFB 0xF8 GAS 0xDE 0xDE SWAP9 CALLCODE 0xFB 0xA9 0xE0 CALL 0xD5 0xBA STOP 0xEC PUSH28 0x9F88E1E81B2A75C73DE22BAD54DCC64736F6C634300081800330000 "},"methodIdentifiers":{"createProposal(string,string,uint256,uint256)":"6b5e1766","getAllProposals()":"cceb68f5","getProposal(uint256)":"c7f758a8","getVote(address,uint256)":"6b0dd90f","proposalCount()":"da35c664","proposals(uint256)":"013cf08b","vote(uint256,uint8)":"943e8216","votes(address,uint256)":"9f2524ee"}}}}}